:100000000045002015E401005B3A0000AF3E00000F
:10001000A70A0001000100000000008000000000AD
:10002000C335E1AC0000000000000000000000004B
:1000300000000000000000000000000000000000C0
:1000400000000000206D73B10000000000000000FF
:1000500000000000FFFFFFFF0000000000000000A4
:100060000000000000000000000000000000000090
:100070000000000000000000000000000000000080
:100080000000000000000000000000000000000070
:100090000000000000000000000000000000000060
:1000A0000000000000000000000000000000000050
:1000B0000000000000000000000000000000000040
:1000C0000000000000000000000000000000000030
:1000D0000000000000000000000000000000000020
:1000E0000000000000000000000000000000000010
:1000F0000000000000000000000000000000000000
:100100000045002015E401005B3A0000AF3E00000E
:100110007F3F0000F73F0000A748000000000000FC
:100120000000000000000000000000006B4900001B
:100130003F55000000000000836C0000476F000086
:10014000278101004DB30100277E0000DB870000FE
:1001500081AF01008DB3010053B3010055B301001D
:100160004FB301008B92000073C90000AFC90000BB
:10017000A7CA0000E3F600005B160100133F010070
:100180008F4E0100BB510100475A01008F5E0100F4
:100190009B68010087840100239A01001B9E0100D7
:1001A00077D6010097D60100ABDB01009BE201008E
:1001B0008FB3010051B30100898401002FE40100D5
:1001C000C3B3010031E4010033D6010033E4010080
:1001D00035E4010037E4010039E401003BE40100AB
:1001E0003DE401003FE4010041E4010043E401007B
:1001F00045E4010047E401000000000000000000A9
:1002000002989E030298A4030298F806029804023A
:100210000298BC030298CA030298BC0302984004E7
:1002200002986C05029892050298300602983E06E4
:100230000298B0060298E2060763076390B96379F3
:1002400001DB067102981403076300B902EC00CDCC
:10025000114502EC00CC411103B804D91E720731DC
:10026000911210DA087102DD12721E7002B8076076
:1002700006980E113038127208B80698A00F00C008
:1002800024000840207800F802EC00CA05B823DA00
:10029000EA7202EC00C8911110D91A7100C1FC1E5B
:1002A0000021141111500E713111076908D906721D
:1002B0000AB8C87007689111173111402111C03177
:1002C0001140011990B8411108D90471627820D900
:1002D00004726578273123DD0872C0DA0471607812
:1002E00003B8411107310872A11520358E7102DD66
:1002F0001672A11120D98471CCDA807206B8054D2E
:10030000B2720298140321114049C0D93471A0314E
:100310004115403501655141036108DA167204DA6E
:100320002072104901340C71076B80DB147190B896
:10033000677800C00D0F0C0D0698101101D80872D7
:1003400007B802987A00CC32204A00C0051708503E
:1003500006981011113001420DDA6671208800C133
:10036000DE1B250120BB04DA107208DA0A7200C114
:1003700020841000F823E8233114056B01DA06719C
:100380001E49024B076B076B00C04C1F0021381041
:10039000BC2002DA127100B9FF21A11380DB0871C1
:1003A00000C100FCFF01181002989C0200C3F41E5B
:1003B0000021341080D84671EFBA0698CE0E009214
:1003C0000362DDDA9472A11101D9327100C23810D2
:1003D000084024120423281302EC00C804D9167123
:1003E00004BA183008710060FD20012A02EC00C830
:1003F000FF22FA7604DC067218B8737890B8437856
:10040000029814030698200900B8011A91101730B9
:10041000011900C2020200000698A40704D906715F
:1004200001B802A800C0F41E0021041380DB06718D
:100430000298380001DB5C7100C2541F00212411B6
:100440001114FF3402EC00C8FF24FA760761069805
:100450001E11036111380361111401114110069836
:100460001E1101D8087203B802987A00042202DB38
:1004700016712410112811280698321100C2180094
:100480000840FF2008124110076006981E1101D88D
:10049000087120BC10DB06720298140300BB00C177
:1004A0004C1F00211415511207620762C021112C44
:1004B000FF320E714088511406986A03414300943C
:1004C00041115112076AFF320E71511407640698E8
:1004D0006A03076C414300C1501F00211410013B07
:1004E000B8211411111231100F30127100BA0461C9
:1004F00001D80471114200600FD8F4723110066007
:100500001E30047201B8003A087204B802987A00EA
:100510000298AC0100C1306108401411076180D914
:100520001A7102EC1DB002EC1DB101581128802097
:10053000E02008759112204A211900C05C1F00219B
:1005400004110F3103DD1A7200C00060084004106E
:1005500007D80E7200C01040084004B9181000F807
:100560000698CC0E00B8477800F830885088FF34E1
:10057000087102ECFF24F87002EC00CD141001BBEE
:100580005150FFD8047131440760006B10DBF271E9
:100590000421FF22E4720F4C0095009300A00698FE
:1005A000200900F80698200900C5981F002154155D
:1005B0000698C40A00C59C1F002100F8069820096F
:1005C0000698000D0698460C00F80698200910B908
:1005D00002BA0698A60700C59C1F002100F89112D8
:1005E000033288B903DE40727179A11020D80871F6
:1005F0000698C40A5C7000C3F41E0021341380DB2B
:100600001A7100C3A8100840A1141034024C4813FA
:1006100000BC48139114076448138CBB627B40D81C
:100620000671517900BA076A00C0A0000840069818
:10063000340404200878097804112141181000A01E
:100640000698200900BD0698780A10B903DC0471E9
:1006500000B902BA0698A60704D906710040407294
:10066000811008D810710698780A03DC0872069881
:10067000F007267006983805FFD80C7288B84778BE
:1006800000B844784470911010D80E7100BB00C4BB
:100690006C5008400698D80720B802A800F800C09F
:1006A000F41E0021041320DB2071911010D80E716C
:1006B0000760FFD808728CB84478967008DB927295
:1006C000A11328DB8C7203BD06982C050698000D3B
:1006D00000C5A01F00210698780A00BA03DC427208
:1006E000042500C00C5108400698EA08211400C0F7
:1006F000140008400410026804233411112800C1BA
:10070000306108401411076180D90C71911120D912
:100710000671FC23E025F823341106984A11412A7A
:100720005415212D06982A0B0298B40F91100155EB
:1007300003355150011900A001B8811180D92C71E5
:1007400000C10C50084014100430207264211412AF
:10075000EC211410014A07620360803021508C485C
:100760000A717F2155211410013000A0069820093C
:100770000698000D00BD06982C0588B8477800B88B
:10078000447800C5A81F0021541506982A0B02982A
:10079000B40F0698200900C4BC1F002144141DB3E7
:1007A000315B302C20750698CE0800C060000840F0
:1007B0000410016801D80E7100C06400084023785D
:1007C00008B8657806983805FFD8067208B86078CA
:1007D00000C2000002020698A40700F800B900C099
:1007E0009C10084018101C200AB9181000C26000A4
:1007F00008402410911188BB0D302C71082208127A
:10080000FC2204D9147204D804716A7B08D80471DC
:100810006C7B2F7A487B107004D804716D7B08D8EC
:1008200004716F7B217A507B517B8CB8427800A099
:10083000069820090698DC050698460C00F80698EC
:1008400020090698780A07DC0A7200C59C1F00215F
:1008500000F80698460C01B9911004D8047100B94B
:1008600000C2000002000698A6070040207100C0E8
:10087000F41E0021041120D91471076101D9E0721E
:100880008110076001D8D8728CB864780698DC05AE
:1008900000C5AC1F0021541500C01C51084006982B
:1008A000EA08212D0698C40A00C5B01F002100F8EF
:1008B00006982009811108D90C710698F00720B814
:1008C00002A800F80698DC0500BD06982C0588B83B
:1008D000477800B8447800C5B41F00215415029829
:1008E000B40F069820090698C4100698000D0698C3
:1008F000460C0698DC0500F8B110076001D80A71B3
:1009000008B87F78020C7E780698200901F89110CB
:1009100010D846710698820D0698A40D06985C0EB4
:1009200000C51C510840541100C5305008405412F5
:10093000E82554151159112D06760122212D00C1EB
:10094000001F00211411112DD07518B875788CB8BE
:10095000447801B802A800F8B110076810D83071C7
:1009600000C04810084000C3000008403114602453
:10097000282444113411076101D9FA714412281056
:10098000076228100762281007622810E870029892
:10099000280D88BA727A811204DAFC7200A088BA33
:1009A000527A00A00C700698940A11380472076AF3
:1009B00000BB00C1041F002100C4405108401411B5
:1009C00020391672417B007C00C46C50084000C284
:1009D00000000101281400A00698920700C2F41E2E
:1009E0000021241240DA0672617B007C02989E0787
:1009F00088B86B7800C0640008402F7800A0B11060
:100A000001D8047200A000C02870084004111088AA
:100A100000C1001800401810442004111088A820BC
:100A2000041110884CBA757A18103DB11088F4B8CA
:100A3000427844207278D8207378E82073784FB2D7
:100A400000C4FFFF8080413A4FAA01BC01644113FA
:100A5000076300C06C70084003B918100110011042
:100A600001B9181001100110011001109820041193
:100A7000076101B80160003A0471044904D90472A5
:100A800041520760003A0471084908D90472315292
:100A90000460003B0E7200630064314241424FAA81
:100AA000B2704FAA44B801685378F8B85378402020
:100AB000527800913DA9009100C0147008401810B0
:100AC0000091582018100091BC20181000A040245C
:100AD000066400C0FFFF0000013C1DB00220015869
:100AE000402806751EAC01EC00A000C2185008405A
:100AF00024111DB4111324113051F871066C4024D7
:100B000004100158112800C3901F002134110698C9
:100B10004A1100B88020013A0662215A412A00A0F9
:100B2000009000C6C01F0021008801B007680F3088
:100B30005CB111130F330111C04806987E0A069864
:100B40009E0700C4641F002103DD167214BA281426
:100B500000C200010840317A9C22CC22207A00A0F9
:100B600009DDEE7100BA03DF1E71004B0672281416
:100B7000311953B080BB006B30380A7109DD067142
:100B80000298E40E00A04413281441150698940A14
:100B90000060B83000C4E01008404412076201321F
:100BA00021400824287CF8255412F03240DE0472DB
:100BB000404804DB08720DDD0C72044BEF30144822
:100BC000069850090088811140D91E72B112303246
:100BD000CF4A2138B1D8127208D8067104D80A71E8
:100BE0009C24D424237C347098244412FF32C322E2
:100BF000047580B8D82481D8247140D90472237C2C
:100C0000084B04BA80DC067180D8367206B904A994
:100C100001D82E7264242824307C4A7008D80C71C4
:100C200007BA24D8047106BA187004D80C7101BA36
:100C300040D80E7102BA0A7005BA20D8047203BAFD
:100C4000E024441140241814076118149111303124
:100C5000114200C100600840141110D90471404ACB
:100C6000281408140090308802480698F00E00936B
:100C700008DB047100F800A05CB00F3000A0108801
:100C8000B111076980D90A7100C1800008400811BC
:100C9000009100A000C400010840441000A000C062
:100CA00020300E40041104101050F47200A000C057
:100CB00028400E400413315107610C31076911536C
:100CC000381000A006985A0C217A227A00C0801FA2
:100CD00000211DB1181000BB0698540BA4BB00C026
:100CE00040300E400411033101492872B1120762ED
:100CF00007623020041121510F3118726E7B6F7B17
:100D0000F02004114CBA7C7A181014200411607A77
:100D10001810B11002D81071707B30B8627860780A
:100D20000DB001D8FC7102988C0C06985A0C00C0CA
:100D3000F41F002104110698AE0A217A237A00C319
:100D4000000010000698540B00C0701F00211DB158
:100D5000181000A0511400C0B81F00210410012C6D
:100D60000A7500B826A80698CE0800C06C1F00219E
:100D70001DB1181028B010B9115911380EB9114011
:100D800028A880B800C144300840081100C1F01FF5
:100D900000211410303B06710760076000C4083062
:100DA000084044111150FF30015118146FB8076802
:100DB00026A8217A050C21102020267800C063EF98
:100DC0000000314026A8050C20EC247A20EC217A82
:100DD000184826A828B00AB901510F31115028A887
:100DE000050C207A20EC0F0C98B846784178B110A9
:100DF00080D83E7100C04C30084000C16D01000039
:100E000018100D0E0D0E00C0703008400411303166
:100E10001271082025782478960CF82004113031BE
:100E2000F272DC2000C106000000181000B9181092
:100E300006989E0A00C2681F002124100151FF314C
:100E40001150081200A006985A0C00B826A800C03D
:100E5000741F00211DB1181000A030B840780DB1EA
:100E600001D9FC72427800C074300E4004114CBAB3
:100E7000407A1810EC2004115C7A1810A4BB707B27
:100E80004E7B4F7B00C20430084000A008B86E784B
:100E90000EB84EB110D90C723EA8140C0FB83EA873
:100EA000107044A8140C01B800C1AC300E400811F9
:100EB00000C077801F003DB201423DAA00C0FFFF85
:100EC000FFFC013A3DAA140C00C077E01F0001426C
:100ED0003DAA51B801687D7808B87E7806989207D7
:100EE0000698FE0706989E0751140698CE08F4B897
:100EF00045780A0C00C07C1F00211DB1181000A00D
:100F000051B801685D7800C00000000344A83EA805
:100F100000C1AC300E40081110B807683DB101396E
:100F20003DA908B86F7800A001F8541000DC1271D8
:100F300001140698CE0818B8707800B8417800F807
:100F40000298440D0698820D008800C5681F002194
:100F500054155112FF350762FF3206989E0A015957
:100F60005129047511590090212912750698A40D74
:100F700006985C0E03D80472FF0FCE7018B8727812
:100F800000F800C0F41F0021041001D8167150BDF4
:100F90000698BA0E00C3086208402C7B287B00BB71
:100FA0001DB400A001D8047200A00698CE081DB49C
:100FB0002824408800C00470084004108020FF30BE
:100FC00006720298560E00DF067201131670311178
:100FD000016B1159112B016300C1FF070000113B88
:100FE000012B00C08801000001583128087605B89F
:100FF0006EBD2870E820087605B8C8BD1E70DCBD3F
:10100000DC20067606B81470F020067607B80C705F
:10101000E820067608B8047009B800C100620840EC
:101020001412076201DA187110DA08720698BA0E03
:10103000267008212C79287950BD0698BA0E0768C9
:10104000036800C12C60084000C2FF0FFFFF1414AA
:10105000213C0144481101B8009400A002D8047258
:1010600000A00698CE081DB42824408800C0047053
:1010700008400410FF3080DC3C7106986C11015967
:1010800000C2EC1F0021241550452A715412211072
:1010900006986C1111280A75042554155045EE72F6
:1010A00000C01C6008447FB906611810113A48B9A5
:1010B0007979281002B8009400A000C47860084034
:1010C00044122155FF355152281400A0EBBA00C03C
:1010D000641F00210411113A10D9067118B97479EE
:1010E000281000A00698C41011510698AE0A00B846
:1010F000B111076940D9067202989E0F00BC08D949
:101100004071202400C160600840111200DC0C71A5
:10111000A022241210DA10710C70BC222412076273
:1011200004DA04710421141200C180000840320C5A
:1011300028110762281107622811076228114B0C39
:1011400000C15C1F0021141200DC1C7120D8087142
:1011500001B80698A80FF0DA0C720CDB087102B81F
:101160000698A80F482400C380000840FFB801205B
:10117000042114111141087101411813082401427E
:1011800000C1383008401411014100C0006008401F
:10119000041030300168014118132813481300B8B7
:1011A00000C15C1F0021141203682150F03001526D
:1011B000281100A064BC066C415C512C0698CE0836
:1011C00050880698DE030095B110076820D820717A
:1011D00008B86578911004D808720698F00700F8EE
:1011E00088B86E7800C064000840217800F808B81C
:1011F0006C7820B85A7859785B7800C0F440084081
:101200007878797800C0E81F0021041040A846A82B
:101210004EB010D8067102985C104DB100C09FFF0F
:10122000FFFF113840B102D90A72604804BB415433
:101230000870204802BB02BC4DA8F8B87078190CA1
:101240003EB141413EA9F4B973797378717800C415
:10125000F840084000C200410840227000C200006F
:10126000010044AA230C00C200000B0044AA00C4E1
:101270001041084000C21841084004BB587C050CCE
:10128000597C0C240F0C2FAB050CB11008D814712D
:10129000647A657A1CB879787B7820B879787B781D
:1012A000607CF424411351140698CE08727B53B825
:1012B0000168050C687840EC00C0781F00211DB162
:1012C000181000F8015053A800C0B860084004117D
:1012D0000761076180D9047240EC00C4F8400840FF
:1012E0004EB010D80471182441130C23527C407B5B
:1012F00001502FA8050C797C0A0C00C000000102E7
:101300000814787C050C507C08B86D7800A0115941
:1013100010D906710760076008D90471076004D905
:101320000471036002D90471016001D90471006085
:1013300000A010880411023006710761076100C027
:10134000FFFF00001138009100A000C2FFFF000065
:101350002138213900BA01D806710148112A0069E3
:10136000006001D8F6720138F67200A08020FF30CC
:10137000FF48812000A00000002801280328001851
:10138000002A012A0A18292A0118052A0229000020
:10139000F01921B4478FA4BFA14F63FDEED6141DF1
:1013A000636032E0375EA488534E6DFB6435BFF74F
:1013B00053A1811F582CD0A54540FC34F3274298F7
:1013C0009F3EE22E0ECFFFBF1E45CA8C68234A4FB8
:1013D00016531EC44CBAAD9D324B6808CF7BC04C2F
:1013E0000C0053696C69636F6E204C61627300007E
:1013F0000500021500292A0002000A180200000058
:101400000500021200012A00030000000000000095
:101410000500021000002A00020000180100000070
:101420001300020D0016531EC44CBAAD9D324B681A
:1014300008CF7BC04C000000080000000000000046
:10144000000000001300020B009F3EE22E0ECFFFB3
:10145000BF1E45CA8C68234A4F0000000C020000E2
:101460000000000013000C090053A1811F582CD06C
:10147000A54540FC34F32742980000000801000015
:10148000000000001300080700636032E0375EA42C
:1014900088534E6DFB6435BFF70000001000F01953
:1014A00021B4478FA4BFA14F63FDEED6141D0000E9
:1014B000200004000C1200200500200300052A0073
:1014C0000200011800000108FFFF0000C014000026
:1014D00002000108FFFF0000B81400000900000826
:1014E000FFFF0001B01400000A000708FFFF00031F
:1014F0000200000000000108FFFF00009C14000033
:1015000002000108FFFF00008414000001800208AF
:10151000FFFF00077C14000002000108FFFF00002D
:101520006414000002800608FFFF00075C1400003E
:1015300002000108FFFF00004414000003800108BE
:10154000FFFF00003814000002000108FFFF000048
:101550002014000004800108FFFF00001C1400009C
:1015600000000108FFFF000018140000020001083D
:10157000FFFF00001014000004000108FFFF00003E
:101580000814000002000108FFFF00000014000022
:1015900005000108FFFF0000FC1300000000010827
:1015A000FFFF0000F813000002000108FFFF000029
:1015B000F013000007000108FFFF0000E013000027
:1015C0000300070009000000002801280328FFFF8E
:1015D0000018002A012A0000F01921B4478FA4BF87
:1015E000A14F63FDEED6141DD1A0835000AAD3876E
:1015F000174859A75DE904E6915276BB26000080A2
:1016000000100000A50000009A9396D7BD6AD9B5D6
:101610001646D281FEF046DC636032E0375EA48875
:10162000534E6DFB6435BFF753A1811F582CD0A5D5
:101630004540FC34F32742989F3EE22E0ECFFFBF79
:101640001E45CA8C68234A4F16531EC44CBAAD9D22
:10165000324B6808CF7BC04C02000000050002221C
:1016600000012A0003000000000000000500022025
:1016700000002A000200001800150100801200205E
:10168000001401008112002002130200E402002075
:101690000A1200000000000013000A1A0016531E70
:1016A000C44CBAAD9D324B6808CF7BC04C000000E3
:1016B000001101008212002000100100831200209E
:1016C000020F0200E60200200A0E000000000000E7
:1016D00013000A15009F3EE22E0ECFFFBF1E45CA23
:1016E0008C68234A4F000000000D01008412002086
:1016F000000C010085120020020B0200E80200200D
:101700000A0A00000000000013000A100053A18123
:101710001F582CD0A54540FC34F327429800000008
:101720000009010086120020000801008712002035
:1017300002070200EA0200200A0600000000000082
:1017400013000A0B00636032E0375EA488534E6DCD
:10175000FB6435BFF700000000050100881200207F
:101760000004010089120020000301008A120020F9
:1017700002020200EC0200200A010000000000004A
:1017800013000A0500915276BB260000800010006D
:1017900000A500000000000002000200EE02002090
:1017A0001300020300D1A0835000AAD38717485921
:1017B000A75DE904E60000001000F01921B4478F8E
:1017C000A4BFA14F63FDEED6141D00000000010868
:1017D000FFFF0000B817000002000108FFFF000033
:1017E000A017000001800108FFFF0001981700000A
:1017F00002000108FFFF00008017000002800308BC
:10180000FFFF00077817000003800108FFFF0001B9
:101810007017000003000000FFFF000168170000C0
:1018200003000000FFFF000160170000030000003C
:10183000FFFF00015817000002000108FFFF000031
:101840004017000004800308FFFF0007381700005E
:1018500003800108FFFF00013017000003000000B3
:10186000FFFF00012817000003000000FFFF000138
:101870002017000002000108FFFF00000817000009
:1018800005800308FFFF0007001700000380010820
:10189000FFFF0001F816000003000000FFFF000139
:1018A000F016000003000000FFFF0001E816000032
:1018B00002000108FFFF0000D016000006800308A8
:1018C000FFFF0007C816000003800108FFFF0001AA
:1018D000C016000003000000FFFF0001B816000062
:1018E00003000000FFFF0001B01600000200010825
:1018F000FFFF00009816000007800308FFFF0007A5
:101900009016000003800108FFFF00018816000008
:1019100003000000FFFF000180160000030000002C
:10192000FFFF00017816000000000108FFFF000023
:101930007416000002000108FFFF00006C16000092
:1019400005000108FFFF0000641600000200010806
:10195000FFFF00005C16000006000108FFFF00000A
:1019600058160000030005000600070008000900E3
:101970000B000C000D000E001000110012001300EF
:1019800015001600170018001A001B001C001D008F
:10199000C4140000150000000B00000078130000C4
:1019A000050000009013000003000000C0150000B7
:1019B00084E501000000000085E501000000000052
:1019C000FFFFFFFFCC17000022000000070000000F
:1019D000C815000008000000D8150000160000001F
:1019E0006419000086E501000000000087E50100A1
:1019F00000000000FFFFFFFF0300000001000000E7
:101A000000000000020000000100000002000000D1
:101A10000300000013B779FAC925DDB7ADF3CFE0B5
:101A2000F1B614B800010000000000000000000042
:101A30000800000000000602000000000000000096
:101A40000000000000000000000000000000000096
:101A50000100020015005400A9005301A7024F0520
:101A60009F0A000040787D0100000000005A6202D9
:101A700000010000C0CF6A0002000000809FD50076
:101A800002010000406F400102020000FC00D80A81
:101A9000066CFBFF9D00370518E2FEFF750004038E
:101AA000F5E3FFFF4900B9019D43000035005701F0
:101AB000F85700001600D100585700000E007C00B7
:101AC000D049000008004B0028390000F8006C0BDA
:101AD00078DEFAFF9F00F1044EEAFEFF7500DF0298
:101AE00048DEFFFF4C00C3018D33000024001901C4
:101AF000E44B00001300AC00904A00000C006C00A6
:101B0000B13F00000700430046320000C800FCFE61
:101B1000CC1A0000C800FCFE8C1A000083FFBFFF37
:101B2000E2FFF1FFF9FFFEFF00000000FFFF0000F1
:101B300000000000FC00D2104C06FAFF81009B055B
:101B4000F132FFFF500062020B35000026004B010E
:101B5000885F00001800E0005E5D00000E008C0051
:101B60006A4F000008005100F73C0000F8006D23A8
:101B7000441FEEFFF800F20E8E37FAFF7B00A4033D
:101B800024A7FFFF4E00D601AD3400002500300130
:101B9000004D00001300C000CA4A00000B006E0098
:101BA000F73C0000060038008A2B00009600FCFE7F
:101BB0006C1B00008C00FCFE2C1B000083FFBFFF91
:101BC000E2FFF1FFF9FFFEFF00000000010000004E
:101BD000040000000100000004000000F401000007
:101BE000FA00000096000000640000004B000000B6
:101BF000320000001E000000140000000000000081
:101C000001010000010100003C0094003C0096002E
:101C10000000000013001D0012001000150000005D
:101C2000EB4E0000474F0000534F00000000000043
:101C3000000000000028000000000000020000007A
:101C4000000000000028000000000000100000005C
:101C50006C888391AAF5A53860370BDB5A6083BE88
:101C60003F49F6D4A3C55F3874C9B3E3D2103F50DF
:101C70004AFF607BEB40B7995899B8A6CD3C1ABD96
:101C8000E69D350E480103CCDBFDF4AC1191F4EF79
:101C9000B9A5F9E9A7832C5E2CBE97F2D203B02038
:101CA0008BD28915D08E1C742430ED8FC24563769B
:101CB0005C15525ABF9A32636DEB2A65499C80DCF1
:101CC0000000000000000000010000000000000013
:101CD0000100000000000000000000000100000002
:101CE00000000000010000000200000002000000EF
:101CF00003000000000000000200000000000000DF
:101D000000000000000000000000000000000000D3
:101D100002000000020000000100000000000000BE
:101D200002000000000000000000000001000000B0
:101D3000000000000100000000000000050000009D
:101D4000010000000000000005000000020000008B
:101D5000020000000300000000000000020000007C
:101D60000000000000000000000000000000000073
:101D7000000000000200000005000000010000005B
:101D8000000000000500000001000000000000004D
:101D90000400000001000000080000000100000035
:101DA0001000000001000000000100000100000020
:101DB000000800001D000000000200001D000000DF
:101DC000000400001D000000000001001D000000D4
:101DD00000000000349E00001711000000002800E1
:101DE00000000000000000000000000000000000F3
:101DF000809C2B8F80841E00000025002500B400ED
:101E00003001002000000000809C2B8F80841E0089
:101E1000000026002600990030010020000000008C
:101E2000809C2B8F80841E000000000024002C0169
:101E30003001002000000000809C2B8F80841E0059
:101E40000000270027002C0130010020142500008D
:101E500008270000EC1D000004000000B45F000033
:101E6000B80B000000002800000000000000000087
:101E70000000000000000000809C2B8F80841E006A
:101E8000000023002300B600340100200000000001
:101E9000809C2B8F80841E000000240024009D0065
:101EA0003401002000000000809C2B8F80841E00E5
:101EB0000000250025007D00340100200000000006
:101EC000809C2B8F80841E0000002600260053007B
:101ED0003401002000000000809C2B8F80841E00B5
:101EE0000000000022002C0134010020000000004E
:101EF000809C2B8F80841E000000270027002C016F
:101F0000340100200C27000000290000741E00008E
:101F100006000000FBD90200E7180000000078016D
:101F200000000000000000000000000000000000B1
:101F3000809C2B8F80841E000000000027008C00F6
:101F4000380100204C220000000000002C1F00007F
:101F500001000000FBD90200E71800000000780132
:101F60000000000000000000000000007C240000D1
:101F7000809C2B8F80841E000000000027008C00B6
:101F8000400100204C220000000000006C1F0000F7
:101F900001000000EBBE0000E7180000000078011F
:101FA00000000000000000000000000040240000CD
:101FB000809C2B8F80841E000000000027008C0076
:101FC0003C0100204C22000000000000AC1F00007B
:101FD00001000000EBBE0000E718000000007801DF
:101FE000000000000000000000000000B424000019
:101FF000809C2B8F80841E000000000027008C0036
:10200000440100204C22000000000000EC1F0000F2
:1020100001000000000103FF04FF020007000000B0
:1020200002000000040000000000000004000000A6
:1020300000000000050000005000400028000100E2
:102040000008500024001800010000049001500214
:102050007801010000409001AE01780101000010FC
:1020600000000F400000000000040F4001000000CD
:10207000FFFFFFFFFFFFFFFFFFFFFFFF000000006C
:10208000000000000000000001000000FFFFFFFF53
:102090004B60D2273E3CCE3BF6B053CCB0061D651C
:1020A000BC86987655BDEBB3E7933AAAD835C65AA5
:1020B00096C298D84539A1F4A033EB2D817D0377E2
:1020C000F240A463E5E6BCF847422CE1F2D1176B7D
:1020D000F551BF376840B6CBCE5E316B5733CE2B50
:1020E000169E0F7C4AEBE78E9B7F1AFEE242E34F7F
:1020F000512563FCC2CAB9F3849E17A7ADFAE6BCAA
:10210000FFFFFFFFFFFFFFFF00000000FFFFFFFFDB
:102110000000000000000000000008400000002156
:10212000000001020203030303000000183F010640
:10213000041001000001010600102700000C00003F
:102140000000000000000000183F0106041001001C
:102150000001010600102700000C00000000000034
:1021600000000000183F01060410010000010106F4
:1021700000102700000C000000000000000000001C
:10218000183F01060410010000010106001027009D
:10219000000C00000000000000000000183F0106D5
:1021A000041001000001010600102700000C0000CF
:1021B0000000000000000000183F010604100100AC
:1021C0000001010600102700000C000000000000C4
:1021D00000000000010000001CC7710000000000AA
:1021E0002C210000D41D000001000000388EE30007
:1021F00000000000482100005C1E000001000000FB
:10220000000080000000000064210000141F000096
:10221000010000000000800000000000802100009C
:10222000941F00000100000000008000000000007A
:102230009C210000541F00000100000000008000ED
:1022400000000000B8210000D41F0000F01F0301AF
:102250003F00370000000000FC21000004000200E5
:1022600001810100000100001800020000000000D0
:10227000010000002800070000000000000000002E
:102280000000000010000000000000008811002085
:102290002007000048000100000400005400020074
:1022A0000D0F000001010000A000040003C00100A8
:1022B000FF4C000001490000FF4D0000002001001C
:1022C0000807000010200100AAAAAA001820010097
:1022D0000060DA000830010013AC00013030020069
:1022E000F93D100001000000403001000000000036
:1022F000A04001007A27000FB840010000C0830011
:10230000F440010020100000344102008008000069
:10231000E687000040410200E9008800C0E6524D17
:102320006041040000000000000000000600000002
:102330000600000014600800100000003000004695
:102340001F080400C820001000500A00000000030D
:1023500000000000000000005060060018000500AA
:10236000000A00000A00800011000A00294176716D
:102370000000000078600C000F0400000000000066
:10238000140012005B948C1B0000000001040B1968
:102390002C404C59605B534736251B114AF3389645
:1023A0006745231211090000E46007008208BA8C17
:1023B0000000000064048207AC0DCB0C90200600E6
:1023C000F9541C0082940AC704610300C7EF11008E
:1023D000A01B00000A88000020610100FFDF000050
:1023E000306108004CD4E83304196F00080E141A49
:1023F00020262C32383E10325476980A1D5F000099
:102400000100000014700600F870020000030000D4
:102410006000A58300000000820000000000800131
:10242000487002003C3D0000BC19000070700300C1
:10243000060102000F9C030006E04900FFFFFFFFBA
:10244000F01F03013F0037000000000010220000D1
:10245000280007000000000000000000000000004D
:10246000100000000000000088110020201700006C
:102470004800010001040000FFFFFFFFF01F0301FF
:102480003F003700000000002422000030610800F7
:102490004CD4E83B04196F00080E141A20262C3285
:1024A000383E10325476980A1D5F0000010000008B
:1024B000FFFFFFFFF01F03013F0037000000000097
:1024C0003822000028000700000000000000000083
:1024D0000000000010000000000000008811002033
:1024E00020170000480001000104000030610800CE
:1024F0004CD4E83B04196F00080E141A20262C3225
:10250000383E10325476980A1D5F0000010000002A
:10251000FFFFFFFFF01F03013F0037000000000036
:10252000D42100000400020001810100000100002C
:102530001800020000000000010000002800070051
:10254000000000000000000000000000000000008B
:102550000000000000000000A0070000480001008B
:102560000000000054000200000000000000000015
:10257000A000040001480000FF4C000001490000D9
:10258000FF4D00000020010008070000102001009E
:10259000AAAAAA00182001000060DA000830010091
:1025A00013AC000130300200E338100001000000DD
:1025B0004030010000000000A04001007A27000F19
:1025C000B840010000C08300F4400100201000006A
:1025D0003441020080080000E6870000404102000C
:1025E0006D008800C0E6524D60410400000000000C
:1025F0000000000006000000060000001460080053
:1026000010000000000000C61FC00100C8500000FC
:102610000080000000000003000000000000000037
:102620005060060018000500410C00000800000082
:1026300091000400294176710000000078600C00D0
:102640008C000C000000000014001A0000000000C4
:102650000000000001040B192C404C59605B5347EB
:1026600036251B114AF338966745231211090000DD
:10267000E46007008F0846CB0000000023086404D4
:10268000D007CB4891200600F9541C008294EA87B9
:102690000461030051551100B01B000089BB00000C
:1026A00020610100FFDF000030610800E853FA00FC
:1026B000000000000000000000000000000000001A
:1026C000000000000000000001000000147006007F
:1026D000F8700200000300006000A5830000000005
:1026E0008200000000008001487002003C3D0000B4
:1026F000BC19000070700300054100000F9C03002E
:1027000006E04900FFFFFFFFFFFFFFFFF01F03018F
:102710003F00370000000000E82100000400020034
:10272000018101000001000018000200000000000B
:102730000100000028000700000000000000000069
:102740000000000000000000000000000000000089
:10275000A007000048000100000000005400020033
:102760000000000000000000A0000400014800007C
:10277000FF4C000001490000FF4D00000020010057
:102780000807000010200100AAAAAA0018200100D2
:102790000060DA000830010013AC000130300200A4
:1027A000114910000100000040300100000000004D
:1027B000A04001007A27000FB840010000C0E300EC
:1027C000F4400100201000003441020080080000A5
:1027D000E687000040410200EA008800C0E6524D52
:1027E000604104000000000000000000060000003E
:1027F000060000001460080010000000000000C681
:102800001FC00000C850000000D0320000000003CC
:10281000000000000000000050600600FC0069009D
:10282000410C0000000000001100080029417671F1
:102830000000000078600C000804000000000000A8
:10284000BE031A00000000000000000001040C1A82
:102850002F4653616862584935201407C491A0631C
:102860005644332322529224E46007008108A1CB0E
:1028700000000000198407059411CB489920060038
:10288000016120008294EA870461030065B61100AB
:102890001E37000089BB000020610100FFDF00003F
:1028A00030610800E853FA0000000000000000005A
:1028B0000000000000000000000000000000000018
:1028C0000100000014700600F8720200000300000E
:1028D00060002784000000008200000000008001EA
:1028E000487002003C3D0000BC19000070700300FD
:1028F000C30000000F9C030006E04900FFFFFFFF3C
:10290000FFFFFFFF4145532D3132382D4543420033
:102910004145532D3139322D454342004145532D18
:102920003235362D454342004145532D3132382D45
:10293000435452004145532D3139322D43545200F6
:102940004145532D3235362D4354520002000000CC
:102950009BE401009FE40100BBE40100B7E4010037
:10296000BFE40100D9E40100020000000100000002
:10297000800000000429000010000000000000009A
:10298000100000004C2900000300000001000000BE
:10299000C00000001029000010000000000000002E
:1029A000100000004C29000004000000010000009D
:1029B000000100001C2900001000000000000000C1
:1029C000100000004C2900000B0000000500000072
:1029D0008000000028290000100000000000000016
:1029E000100000004C2900000C0000000500000051
:1029F000C0000000342900001000000000000000AA
:102A0000100000004C2900000D000000050000002F
:102A1000000100004029000010000000000000003C
:102A2000100000004C29000002000000682900008E
:102A3000030000008829000004000000A82900000D
:102A40000B000000C82900000C000000E82900006D
:102A50000D000000082A0000000000000000000037
:102A60005E040000000000000100000008070F00E5
:102A70000A00C80020000000A000000001000000C3
:102A800000000000A00068010A200706020A0407EF
:102A90000000000001000000050000000000000030
:102AA000000000000000000000000000080002001C
:102AB00006000000A90A000001000200636032E085
:102AC000375EA488534E6DFB6435BFF753A1811F59
:102AD000582CD0A54540FC34F3274298B814B6F1E1
:102AE000E0CFF3ADB7DD25C9FA79B7134FF0005148
:102AF0000860BFF34F8F0548054A016801F4E061A3
:102B000011430160BFF34F8F00BFFDE70CED00E004
:102B10000400FA054FF00050006870474FF0005174
:102B20000860704780B538B10FF231011E2000F007
:102B300049F81D49012008604FF080401B4908609A
:102B40001B49086001BD1849C860086840F00200D0
:102B50000860704717480068704700001648016811
:102B6000CA0703D5154A13685B1C13608A0704D58E
:102B7000134A136823F002031360816070470A4907
:102B800001200860704710B50C490A68094B1B68A2
:102B90000C68A242F9D1510441EAD3310160C3F378
:102BA0000E01818010BD00001440044080E200E06E
:102BB00000E100E00440044008400440FC03002021
:102BC0002420044041F0010100F0F1B800B51F4895
:102BD00083B0006800F16041B1F5004F07D30021D8
:102BE000019100913F231A4A3F2100F0E6F819496C
:102BF000002000F0DCF81849012000F0D8F817494F
:102C0000042000F0D4F81649052000F0D0F815494A
:102C1000062000F0CCF81449072000F0C8F813494A
:102C2000082000F0C4F812491A2000F0C0F8114939
:102C30001C2000F0BCF810491D2000F0B8F803B0CB
:102C40005DF804EB0D49202000F0B1B808ED00E07C
:102C500000030020278101004DB3010081AF010076
:102C60008DB3010053B3010055B301004FB3010010
:102C7000ABDB01008FB3010051B30100C3B301000E
:102C8000002806D55C4900F00F00084410F8040C39
:102C900001E05A49085C4009704738B504460D46C2
:102CA00000F0B6F85649D1E90023C4E90023D5E97C
:102CB0000023C1E90023BDE8324000F0ADB810B5F3
:102CC000044600F0A5F8D4E900234D4906E010B50C
:102CD000044600F09DF8D4E900234A49C1E90023E5
:102CE000BDE8104000F098B8F8B5074600F090F83D
:102CF000444ED6E9004500F08FF838687968044002
:102D000001EA050220EA040421EA0200210008BFCA
:102D10000028054604D0C6E900453948C0E9004509
:102D2000F1BD10B500F00AF8184304E010B500F04A
:102D300005F823EA000041F8220010BD421151F8C5
:102D40002230012400F01F0004FA00F0704710B593
:102D5000044600F05DF82B49D1E90023C4E90023C3
:102D6000BEE770B5064600F053F82649D1E90045A4
:102D700000F052F83068204205D170682840401EAB
:102D80008041C00F70BD002070BD1E49421151F836
:102D9000221000F01F00C14001F0010080F001008E
:102DA00070471949096801EB8000006C7047164AAA
:102DB000126802EB800001647047F0B5059D069C27
:102DC000002603E00FB942F82650761C9E420FD22F
:102DD000270002D08E42F6D205E052F826708E42CD
:102DE000F0D2002FF1D150F8267042F82670ECE7AF
:102DF00005480260F0BD000018ED00E000E400E0CE
:102E000080E100E000E100E008ED00E072B670470C
:102E1000EFF3108072B6704700B962B67047002AAF
:102E2000DFF800F05B020020DFF800F0CD020020A8
:102E300010B582B00446FFF7F3FF002000F056F90A
:102E4000201DFFF7F1FF00F050F904F10800FFF733
:102E5000EBFF221D082100F09FF900F04BF9002044
:102E600016BDC0F30A010831B1F5006F04D28088A5
:102E70004FF6FF71884201D1012070470020704752
:102E800010B500F059FADFF88404DFF884440168D3
:102E900009048909A1F58051216008210068000416
:102EA0008009A0F5006060602068021D00F074F9E0
:102EB0002168096888421CBF2068FFF7B9FF606875
:102EC000021D082100F068F96168096888421CBF8A
:102ED0006068FFF7ADFF2068406861684968884214
:102EE0008041DFF83014C00F0870BDE8104000F0DA
:102EF0002FBA2DE9F04104464FF6FF75AC4214BFDE
:102F0000002840F2122084B00E4633D000F0E8F8DA
:102F100050F8218000F010FA08F10C073846FFF74E
:102F2000A0FF20BBB888304006EA0401884211D1D6
:102F3000D7E90001CDE90001ADF806500422BDF843
:102F400004006840ADF8040002A901980290381D01
:102F5000FFF76AFFB87900F0DFF907EB800000F1B6
:102F60000807F80A08F10C0100F00EF9D6D000F0BD
:102F7000EFF9002004B0BDE8F0812DE9F84F80465C
:102F80004FF6FF70804514BF5FEA08004FF4C07031
:102F900084B00D4693461F465CD000F0A1F850F86F
:102FA000219000F0C9F909F10C04002609F10C0A7E
:102FB0002046FFF756FF002832D100F0EAF82168DA
:102FC000884204BFA088404521D1A079834509D11A
:102FD00004985A4604F1080100F0C6F910B900F04F
:102FE000B7F970E0D4E90001CDE901010422BDF890
:102FF00008004FF6FF714840ADF80800ADF80A1020
:10300000694602980090201DFFF70EFF064600F06B
:10301000FEF800F05FF808BF002EC9D0002E4FD197
:103020005FEA0B004CD004EB0B000830C00A00F044
:1030300051F810D000F012F90446C4F30A00002839
:1030400004D058440830B0F5006F04D900F080F97E
:1030500040F201503BE04BEA0520ADF80A00ADF824
:103060000880251D029800902646042269462846BD
:10307000FFF7DAFE2C1D00250EE03878797840EA5B
:103080000120B97840EA0140F97840EA016000F097
:1030900031F83F1D241D6D1C38B90BF103004110A0
:1030A00000EB9170B5EBA00FE7DB321D0BF10401D3
:1030B00000F072F800F01AF83046FFF7B5FE064649
:1030C00000F046F90EB9002001E04FF4C67005B0DB
:1030D000BDE8F08FC0024FEADA21B0EBC12F704794
:1030E0008C498B4891F90010704701200090042210
:1030F000694670470090042269462046FFF794BE57
:103100002DE9F0470C46834991F9001007468048A5
:1031100050F821A0154699460AF10C08464630465B
:10312000FFF79FFEA0B9B079011D321D00F034F801
:103130003168814218BF7F1CF088FF2190FBF1F1BC
:10314000C1EB0121401A00F0EDF800F019F802D0AF
:1031500040F2025012E03846471EC0B20028DDD1CE
:10316000B088208015B1F088000A2870F08889F8AE
:10317000000006F10800089908600020BDE8F0870B
:103180004FEAD8200AF10C01C002C90AB0EBC12FE6
:103190007047A079011D221D4FF0FF3000F016B9D5
:1031A0002DE9F8430D465B4991F9001081465848D6
:1031B00050F8218016461F4608F10C042046FFF700
:1031C00050FED8B9FFF7E5FF2168884204BFA08808
:1031D00048450CD194B115B1E088000A2870E08808
:1031E000307004F1080038600020BDE8F28300F080
:1031F0000EF808F10C01FFF7C7FFDFD00DB100207A
:10320000287000203070386040F20250EDE7A0795D
:10321000C01C411000EB9170801004EB800000F1A5
:103220000804E00A70471CB514466B4601AAFFF774
:10323000B7FF10B99DF8040010B940F2025016BD56
:103240000098007820809DF80410022904DB009982
:10325000497840EA01202080002016BD2DE9F04782
:103260002C4C2B4994F9000082B051F820A080F03A
:10327000010051F820502846FFF7D2FD0AF10C0852
:1032800005F10C0902E0B07900F04CF8FFF778FF87
:103290001ED146463046FFF7E4FDC8B9B079011D9E
:1032A000321DFFF779FF31688842ECD10027B079F1
:1032B00000F032F8801C8742E8DA58F8040BFFF778
:1032C00015FF4846FFF7B0FD09F104097F1CEEE742
:1032D000DAF80400401CFFF709FF281DFFF7A4FDE2
:1032E000FFF703FF05F10800FFF79EFD2A1D0821E7
:1032F000FFF752FFFFF7FAFE2846FFF795FD20780B
:1033000080F0010020704846BDE8F687F881E00FA4
:1033100048040020F0020020C01C411000EB917016
:1033200080107047C01C411000EB9170801008EBBA
:10333000800000F1080870470948016800680948E2
:1033400041F67131816301684908490001607047A5
:103350000448016849084900016000218163704701
:1033600004300E4008000E400300002013F0030F4D
:1033700009D0521E22BF13F8010B11F801CBB0EB9C
:103380000C00F3D07047121F22BF53F8040B51F802
:1033900004CB6045F7D0121D0AD200BA9CFA8CFC0F
:1033A000B0EB0C0038BF6FF0000088BF0120704701
:1033B000521E22BF13F8010B11F801CBB0EB0C0029
:1033C000F6D0521C08BF10467047032810B50A4BB0
:1033D00040F201141C6098600120586002E012F86D
:1033E000010B98610846411E0028F8D1D8694FF0BA
:1033F000FF31484010BD00BF00C00140DFF8C003EE
:103400000078012818BF00207047DFF8B813086063
:103410007047DFF8AC2353780380907808807047BA
:1034200010B5DFF89C331C7804431C70012804BFDE
:1034300059709A7010BD38B504460D462278611C4B
:10344000284600F0EDF92078286131BD2DE9F043E0
:1034500085B00646894617461C4600F0E7F9FF1E70
:10346000DFF86483D94D38D07F1E53D0FF1F00F0A2
:103470000A81FC3F00F09B807F1E00F0F6807F1EDB
:1034800000F0CF80F83F49D0BF1E53D0FF1E6BD055
:103490007F1E00F0E080FB3F14D040F2FF403F1A57
:1034A00000F025817F1E00F001817F1E00F0088161
:1034B0007F1E00F00F817F1E00F01081BF1E00F004
:1034C00023812DE1BF4805682800FAD0234640F249
:1034D000023249463046A84722E10C22002101A8C9
:1034E00000F0B1FA01A800F0B9FA0220A880002388
:1034F0000620E880002200202881294640F6A920E5
:1035000068810298E86001202882B14800F00CF937
:10351000122003E12068A880AE48FAE02068007B12
:103520008007D9D56068A88000232068C07F00F09C
:1035300008F9E7E02068C07F00F0ACFB060012D07D
:10354000307B80060FD46068A8800023F07F00F0F5
:10355000F8F8072000F0A4FC304600F0F3FCF06817
:1035600040F02000F060DBE0FFF748FF20B9206862
:1035700090F83D10FF290AD1206800F0F5F800F01E
:10358000D7F818BF002000F0E4F893485FE000F09F
:10359000EBF800F0CDF818BF002000F0DAF8206852
:1035A00090F83D00A8738D4800F0BEF837E08C48D5
:1035B00000780028D7D16078FF2813D1A07828712F
:1035C0000622E11C681D00F02BF9607AE8720023E6
:1035D000A07A2873002283482860294601200090A1
:1035E0000D209BE020782871062260786871E11C2C
:1035F000A81D00F015F9607A287304F10C03A07A75
:103600006873E07AA8730B30010241EA102040F49D
:10361000403040F0A00000F087F82946AA7B0F2038
:103620007CE000F0ABF800287AD000F0A3F86088C6
:10363000A5F805000022A088A5F807002946E08823
:10364000A5F80900207AE8726089A881664800F030
:103650006BF80E2062E000F091F8002860D020782E
:10366000287160786871614853E0FFF7C7FE30B198
:103670005F482860002300F067F804204EE000F067
:1036800079F85C481FE000F079F800281CBFC17D84
:10369000102945D0C07F287100236078687100220E
:1036A000A078A87129465448286029E000F066F8FF
:1036B000002835D020782871607868714F4828E05C
:1036C00000F058F84E48286000220120009029465A
:1036D000052023E000F055F84A4802E000F051F8D8
:1036E00049482860294601200090092016E000F092
:1036F00041F86068A5F80500002244482860294682
:1037000001200090072009E0207828716068687126
:103710003F482860002300F017F8062000F0C0FBA7
:10372000002005B0BDE8F0832860012000907047BC
:103730002068C07DA8722946206890F82E000128D4
:103740007047A871C5F8008001200090002229462A
:103750007047E87200232068C07F28730022206829
:1037600090F83C006873704700F111010622281D93
:1037700000F056B82078287100237047207800F0B8
:1037800089BA2078287100236068C5F805000022F6
:103790007047032200210A4800F055B938B50446A5
:1037A00040F22D152846A0471A4908602846A04730
:1037B000194908602846A0471849086031BD000033
:1037C0008C04002090040020A00308015C04002069
:1037D000A00E0100A0020105A00A0800A00B080528
:1037E00066120020A0090302A00A0802A002080431
:1037F000A0000301A0010303A0030803A0020F031C
:10380000A0010F01A0050F00A0050F02A0030F04E7
:10381000A0020F0950040020540400205804002086
:1038200010B5044600F0ACFB204610BD38B540F2A0
:103830000161521A1C465D485D4D1AD0521E1CD0C3
:10384000521E29D0521E47D0521E3BD0521E56D077
:10385000521E66D0521E68D0F93A6DD0521E74D0F6
:10386000521E76D0521E00F08880521E00F08D80CD
:1038700099E000F0C2F84F488DE02078287104F1FB
:1038800008036068C5F80500A06900F0BCF84A4963
:1038900008432860294674E02078287104F1080361
:1038A0006088A5F805002079E871A0692872287A57
:1038B0002A7A401D010241EA1020404900F08EF8AA
:1038C00009206EE000F0B3F8A872A87AC01D0102CA
:1038D00041EA10203A4941E020782871231D608890
:1038E000A5F805006069E871E879EA79001D010230
:1038F00041EA1020334900F071F8082051E000F04F
:103900007CF8A088A5F80700A06800F02FFE00F062
:103910007AF82D49084328602946022000900A20A1
:1039200023E021782971616803E02178297140F250
:103930000311A5F805102EE000F079F800F054F816
:1039400040F4202040F0A00009E000F064F81F4897
:1039500016E000F06CF800F047F81D490843AA7A19
:1039600028602946022000900B20A36800F098FAF6
:1039700004F1080000F031FD15E000F04CF81548A6
:103980002860012000900A200BE0207828716068F0
:10399000A5F8050010482860002301200090294662
:1039A000072000F07DFA002032BD0000A0030906C8
:1039B0005C040020A0030900A0000901A000090286
:1039C000A0000904A0000903A0000905A0060A013F
:1039D000A0000A02A0060A03A0030A040843286004
:1039E0002946012000907047A872A87AC01D0102E4
:1039F00001F47F4141EA10207047207828716088E7
:103A0000A5F8050070476872687A6A7A801D01021D
:103A100041EA102070472078287100236088A5F8BB
:103A2000050029462079E871E088288170472078D0
:103A300028716088A5F805002079E871E088288160
:103A4000A06800F093BD10B5044610460A46014632
:103A5000204600F0F5FE204610BDFEE710B53749C0
:103A6000374B0A689B18B3F5605F09D21368354C71
:103A7000A34205D19268426001230968896901E087
:103A8000002300218160036010BD2C482C49006890
:103A90000918B1F5605F3CBFC069004708E02748DE
:103AA000274900680918B1F5605F3CBF006A00470C
:103AB0004FF48170704724480121816040F2022256
:103AC0004FF000510A804FF20F024A80016821F442
:103AD000E06141F480610160BFF34F8F1B481C4AD5
:103AE000016801F4E06111430160BFF34F8F00BF33
:103AF000FDE7124A124B12689B18B3F5605F3CBF9A
:103B0000926A104740F20220704738B50B4C0C4DBA
:103B100024682D19B5F5605F02D340F2022032BD52
:103B2000E46AA04732BD0549054A09685218B2F552
:103B3000605F3CBF496A0847002070472808E10FD2
:103B400000F81EF007B0CD5E00500E400CED00E016
:103B50000400FA052DE9F04105460E4690461F4641
:103B6000022000F0D3FE04002DD0502100F0FAFE18
:103B7000A6770622294604F1180000F001FAE7753D
:103B80000622414604F1110000F0FAF904F13C006C
:103B90004FF0FF310170FF21417000205D49401C52
:103BA0000A68C0B203E0D37F9842F8D09268002A36
:103BB000F9D1E07740F6FF7020840868A0600C60BF
:103BC000204600F0A9F82046BDE8F08100B101844C
:103BD000704710B504003AD094F904000128A4BF3E
:103BE000401E207194F90400012809D1207B800730
:103BF00006D5207C01001EBF0128204601F0CFF928
:103C000094F90400012822DA204601F0B6F904F103
:103C1000240000F0E2FB3F49086858B1844203D118
:103C2000A068086006E00846816819B1A142FAD18F
:103C3000A168816000220FF21901204601F048FDC1
:103C40002046BDE810400022012101F03BBD10BD1F
:103C500010B5012A0C4602D0022A07D004E0002247
:103C60000221204601F02EFD002010BD204601F06B
:103C70005EFD2146022000F05AFE012010BD2549BC
:103C8000096800E0896800291CBF0A8C8242F9D1CA
:103C9000084670471F49096800E0896800291CBF71
:103CA000CA7F8242F9D10846704770B50446194868
:103CB00006680D4600E0B66856B1F07DA842FAD11C
:103CC0000622214606F11100FFF74EFB0028F2D133
:103CD000304670BD38B504460E48056800E0AD6852
:103CE0005DB1287C0428FAD13CB10322214605F1BC
:103CF0001400FFF739FB0028F1D1284632BD10B976
:103D000004480068704780687047024900200860D6
:103D100070470000E805002010B10179491C0171CD
:103D20007047024600235021022000F0BDBD022052
:103D300000F0F7BD57490A68100003D012680A6006
:103D400001F083BD70475348006800B1001D704703
:103D50002DE9FC410F460646387800061446984681
:103D60000FD5A019001D01F05EFD4A4D30B30021B2
:103D7000016000E00D4629680029FBD12860051D7F
:103D800001E045480568324639462846FFF748FDB8
:103D9000A4B10898AD19022808D122464146284608
:103DA00002B0BDE8F041002300F070BA224641465F
:103DB000284602B0BDE8F041FFF732BDBDE8F3810F
:103DC000E0B58278C078ADF80810000640EA0240FD
:103DD00040F408700190002301200090002201A906
:103DE0000620FFF7B5FF07BDF1B582B00C460120F4
:103DF00000F097FD0B2838BF4FF4C1712AD3274834
:103E0000006800210CE00832566846B1167806F0CA
:103E1000F806BE4204BFD678AE42F4D1114680689F
:103E200088B181B94268029B0093002A9DF8003056
:103E30009DF80350F3D096789DF80270BE42EED103
:103E400003F0F807E0E719B1496820468847F7BD55
:103E500040F2831102A8FFF7B3FFF7BDC4E770B5C6
:103E60000E4E044630680D4600E0806818B1416887
:103E7000A942FAD10BE00C2001F0E4FC10B94FF498
:103E8000C17070BD04704560316881603060002091
:103E900070BD000094050020540400209805002007
:103EA00010B582B0049C0094FFF752FF13BDFEE7EB
:103EB00080B51A490020086001F0C9FCFFF725FF12
:103EC00000F068FD00F098F801F0C2FC01F05FFE20
:103ED00002F05AFD02F0D6FEBDE8014001F04BB8F9
:103EE00038B504460D46002301220021002000F0D1
:103EF000DBFC2046FFF715FF284601F039FE0020C5
:103F000032BD1CB5044606220549684600F048F853
:103F100020466946062200F033F813BD54060020FF
:103F2000080A002010B5044603E001F02FFC01F060
:103F300020F800F09DFF00282046F6D1BDE8104093
:103F400001F024BC002818BF02F051BB4FF4C07030
:103F5000704780B5FFF79EFE20B1008CBDE802409F
:103F600001F096BA4FF4C07002BD01B56A46012156
:103F7000012001F0BCFA002002BD01F0B8BAFEE752
:103F800062B38B0708D0521E11F8013B00F8013BC9
:103F900000F024808B07F6D1830740F0208000BF1B
:103FA000103A07D330B4B1E83810103AA0E838100E
:103FB000F9D230BC530724BFB1E80810A0E80810BC
:103FC00044BF51F8043B40F8043BD20724BF31F80A
:103FD000022B20F8022B44BF0B7803707047083A7D
:103FE00007D3B1E80810083A40F8043B40F804CB86
:103FF000F7D25307E4E7FEE780B5012000F0A1FC0B
:10400000DFF82418801F08600020DFF820180870EF
:10401000DFF81C18086001BD2DE9F0470546894608
:10402000924602F04AFF8046DFF8FC07DFF80448BA
:104030000068DFF80468012D22D13168814224DA5A
:10404000012000F063FC07002FD0102100F08AFC53
:10405000B86840F00800B86087F809900AEB0900DA
:10406000B872002038607D60B86840084000B860D1
:104070000020012DF8600DD13068401C306018E040
:10408000002DDDD121688142DADB404602F019FFC4
:10409000002012E01DB92068401C206009E0DFF814
:1040A0009C070168491C016003E0DFF880170120CC
:1040B0000870404602F005FF3846BDE8F087002250
:1040C0000021A9E78B18462BBCBFC9B2FFF7A4BFDC
:1040D0000020704738B514461D460022C9B2FFF7CC
:1040E0009BFF009040B12A46214600F054FAA842B6
:1040F0003CBF684600F071F9009832BDF8B504463F
:1041000000200D46009000261CE0607A7872A07AAC
:10411000B872A068B968400860F34101B960A0684E
:10412000B968800860F38201B96000F03FF8787ADE
:10413000384400F0A8F8009800B9009706B137603D
:1041400024683E465CB1002200212846FFF764FF48
:104150000700DAD1684600F040F90020F2BD00986F
:10416000F2BD38B50446084600220021FFF754FF8F
:10417000050001D1002032BD607A6872A07AA87271
:10418000A068A968400860F34101A960A068A96817
:10419000800860F38201A96000F008F8687A28447A
:1041A00000F071F800202860284632BD607AA17ABC
:1041B0000A1A204400F11001704738B5050031D0CB
:1041C00002F07BFE0446A868696820F00800012917
:1041D000A86008BFDFF8601605D000290CBFDFF823
:1041E0005416DFF858160A68521E0A60C00729469E
:1041F0004CBF0320012000F09AFBDFF83006017865
:1042000059B100210170DFF82806056803E06968EC
:10421000284688472D68002DF9D12046BDE8324058
:1042200002F04FBE31BD10B508E0427A837AC9B2C0
:104230009C1A8C4205DAC91A006851180028F4D17A
:1042400010BD10440844103010BD827AC2F14503FD
:104250009942A8BFC2F145018A188272C8B270475C
:1042600038B504461546A07AC0F14502954288BF8C
:10427000154620442A4600F006F8A07A2818A072B5
:10428000284632BD32461030FFF77ABE2DE9F042A3
:104290005FEA000918BF00290BD00C46607AA17AAA
:1042A000DBB20F1A9F4206DA591A24684318002C11
:1042B000F4D1002021E0A67A2118301A1944C51A39
:1042C0001031EDB24E4609EB020705E0607AA27AA2
:1042D0002118151A1031EDB2BE420CD27019874266
:1042E0003CBFBD1BEDB22A463046FFF749FE2468AD
:1042F0007619002CEAD1A6EB0900BDE8F082F8B5EA
:1043000004460D46164600F031F9B04205D24FF092
:10431000FF30F2BD24683D44F61B7CB176B1607A73
:10432000A17A0F1AB74288BF374620443A46294639
:104330001030FFF719F80028ECD0F2BD0020F2BDD4
:104340002DE9F84F06460D46924600F00FF9044657
:10435000284600F00BF95445A8BF504507DA8442BF
:1043600004D0ACBF01204FF0FF3034E0A24600245F
:10437000A1460027A04609E0A4EB0B04A7EB0B071E
:10438000D944D844AAEB0B0AE4B2FFB25FFA8AF030
:1043900008B33CB9707AB17A0C1A30443668E4B28A
:1043A00000F110093FB9687AA97A0F1A28182D6808
:1043B000FFB200F11008A346BC42C8BFBB465FFA7B
:1043C0008AFADA4538BFD3465A4641464846FEF790
:1043D000CBFF0028D0D0BDE8F28F38B5044603E00B
:1043E0000568FFF7EAFE256020680028F8D131BD96
:1043F00000B9704710B5016821B900220260084673
:1044000010BD026003681A68002AF6D09468C4F3ED
:104410004004002CF5D000241C60EFE738B50446BA
:10442000607A884202D3401A607213E0A27AC2F125
:104430004503C3188B420FDB121A0D1A23185819A3
:1044400003F11001103002F03FFD00206072A07AED
:104450002818A072012032BD002032BD38B50446B4
:104460000D46FFF7DBFF08B1204632BD6068FFF75D
:1044700026FE28B1046045218172C5F145014172D3
:1044800032BDF8B504460D46607AA17A0A1A081AB8
:10449000561B8542B6B204DA6068FFF710FE0700CB
:1044A00001D10020F2BD607A2044284400F11001BF
:1044B000787A3844FFF7E6FEB87A3018B872A07AF6
:1044C000801BA0722068386027600120F2BD10B503
:1044D0000C46002818BF002C07D0617AA27A837A94
:1044E000521AC3F14503934201DA002010BD214462
:1044F0001031FFF7B5FE2046FFF75FFE012010BD2B
:10450000F8B504460F4626680020354605E0B07A27
:10451000717A381A0F1830463668F9B269B166B147
:10452000B07A717AFFB2401A8742F0DA39463046E3
:10453000FFF7A7FF0028EAD1F2BD08B10021016012
:1045400026602846F2BD016821B10A680260002099
:10455000086001E00022026008467047016819B156
:104560000A680260084628E601607047002104E0FE
:10457000827A8918427A0068891A0028F8D1084698
:104580007047026812B9016070470246106800283F
:10459000FBD1116070472DE9F84304000D4618BFA8
:1045A000002D164600D00EB9002022E0A14600E002
:1045B0008146D9F800000028FAD15FEA0908374699
:1045C00005D1617A60680022FFF726FD8046B8F1C8
:1045D000000F0DD03A4629464046FFF741FE3F1AEC
:1045E000C8451CBFC9F80080C146002F0544E8D16A
:1045F000F01BBDE8F28338B505680C4615B90460B8
:1046000031BD054628680028FBD1206818B1204636
:1046100000F054F803E02846FFF759FF00B92C607A
:1046200031BD026802B10A60016070470A0001D121
:1046300070471A461368002BFBD1036813600160B2
:10464000704738B504460D4604E06D1A01682160D4
:10465000FFF7B3FDE8B250B1206840B1427A817AE9
:10466000891A89B2EDB28D42EFDAA918417231BDD3
:1046700070B504460D46206810B970BD002030604A
:10468000E8B2D0B12068002817D0002601E0064625
:10469000084601680029FAD1417A827AEDB2531AAC
:1046A0009D4202DA511B817270BDAA1A8D18FFF764
:1046B00084FD002EE2D10020206070BD70B504465C
:1046C00043E0A17A607AC1F145021518ADB2002D20
:1046D0003AD002000DD00A1A204400F1100104F172
:1046E000100002F0F1FBA07A617A401AA07200205B
:1046F0006072206840B38168C1F3400121BB417AF8
:10470000827AA37A0844521A00F11001607A92B2B8
:104710002E4695422044C8BF16461844FFF7B2FD06
:10472000A07A3018A072AD1B2068417A71184172CE
:10473000ADB22068817A427A891A03D1016821607A
:10474000FFF73BFD002DD4D12468002CB9D170BDFA
:104750002DE9FB4781B0002501980095002890467F
:1047600047D00646A946AA46002423E0B9F1000F27
:10477000FFB20DD101989DF8081040680022FFF7A4
:104780004BFC5FEA00092ED049466846FFF7F9FE68
:10479000707A3044001900F110013A464846FFF79C
:1047A0005FFDBA445FFA8AFA3C19C245E4B204BF1D
:1047B000A946AA46707AB17A0A1A94420EDA121BF6
:1047C00013464245C8BF4346A8EB0A07BB42CDDAB1
:1047D0004245AEBF4746081A071BC7E73668002E9A
:1047E000C2D1009D04E0009810B16846FFF7F5FDC6
:1047F000284604B0BDE8F0870F480E4900680968F4
:1048000040EA01200D49096840EA0140704710B5AF
:10481000044602F052FB06490A6822600C60BDE8BB
:10482000104002F04EBB0000200000206A12002061
:10483000B8050020C0050020BC050020C4050020EC
:1048400062F30F2262F31F42401810F0030308D0F6
:10485000C91A1FD3DB0748BF00F8012D28BF20F875
:10486000022D130030B414461546103928BF20E934
:104870003C00FAD8490728BF20E90C0048BF40F89F
:10488000042D890028BF20F8022D48BF00F8012D13
:1048900030BC7047C91818BF00F8012DCB0728BFDE
:1048A00000F8012D7047FEE770B51446C91C4FF69D
:1048B000FC721140C91C02EA0105284901EB0016EF
:1048C0000020274935807480F06004FB05F00968FA
:1048D0008847706015FB04F1318189B2706800F07F
:1048E00041F8002007E0716800FB05F21144F2680E
:1048F0000A60F160401CA042F5DB748070BD184A6C
:10490000116050600101154802F01ABB134901EB18
:104910000011C86820B10268CA604A88521E4A80E5
:1049200070470E4901EB00104088C0B270470B4A37
:1049300002EB0010C2680A60C1604188491C4180D6
:104940007047000105490A5A2AB10A18085A128903
:1049500092FBF0F070470020704700009C0400209C
:10496000B00500200022FFF76FBFFEE70188491C59
:104970008AB202B9012101800088704710B504464F
:10498000012000F0F0FADFF82C0804600020BDE8F8
:104990001040E8E2DFF81C0800210160C1600161FD
:1049A000816141614FF6FF7181847047DFF804181F
:1049B000C2784A6042F2130382889A4200D070475C
:1049C00000B583B082788DF802208088ADF80400AD
:1049D00001F12400FFF7CAFFADF800006A46062186
:1049E000DFF8D40700F0BBFE07BD70B584B0054604
:1049F000DFF8C007A978DFF8C0474160B5F80310B9
:104A0000103942D04FF47E72891A3ED040F2FB72C8
:104A1000891A3AD040F2FE32891A0FD0083921D0D3
:104A20004FF47F72891A31D040F60942891A75D045
:104A300011393BD01439012938D94CE00A2000F053
:104A4000F2FE00286AD0B5F8071041800246A97925
:104A50000170697A0171A98901816989C1804FF466
:104A600083710FE00622A91D1C30FFF789FA06208A
:104A700000F0D9FE060051D00622A91DFFF780FAEA
:104A800032460821204600F01DFE7FBD68798DF872
:104A90000900E888FFF7F3F800B1C07F8DF808003F
:104AA00002AA287A8DF80A000B2134E06879010007
:104AB00014BF40F400700020009042F21F01B5F8CE
:104AC000030088420CBFE8880020ADF804006A4665
:104AD00040F202311FE069798DF8021040F66D4214
:104AE000B5F80310ADF80410B5F80310891A09D011
:104AF00041F29832891A05D0891F012984BF2A39C9
:104B0000042903D82430FFF731FF00E0808CADF892
:104B100000006A460621204600F021FE7FBD2DE9F7
:104B2000F04E044682B0A07801284FF0FF0A00F052
:104B30008C8002282ED0032876D0052800F0C28071
:104B4000062800F0CD80072800F0F1800C2800F046
:104B5000D580122800F0DC80132840F0FB800C2068
:104B600000F061FE060000F0F580E078B07086F895
:104B700001A0062220797072611DF01CFFF700FA77
:104B80004FF0FF3030700020F0723046BDE8F64E36
:104B900001F0D4B8E6784FF0000B11E000F0DCF83B
:104BA0005FFA80F9EDB2B542F8DB0BEB0900204467
:104BB0000BF1010B90F904003870384601F0BEF893
:104BC000B3454FDA2B2000F02EFE07004AD004EB4D
:104BD0000B0087F802A006220079787000250BEB05
:104BE0000600204400797872700002FB0B0020441C
:104BF000011DF81CFFF7C4F90BEBC6002044007937
:104C0000F87206EBC60001E000F0A6F85FFA80F942
:104C1000EDB25D45F8DB04EB0900FA7A011D07F1FE
:104C20000C00FFF7ADF9BDE7A088FFF728F80200F8
:104C300018D0E078002815D102F14800E188018001
:104C400061894180218981807FE0E079A17951B932
:104C5000010018BF012104F10800FFF726F85FEA00
:104C6000000A0BD176E0014604F1080001F04BFC8C
:104C70005FEA000A6ED002208AF82E000AF11006C0
:104C8000E07878B9A1885046FEF7A0FFE089308728
:104C90000021608A7087208AB0875046BDE8FC4EAC
:104CA00001F0C3BC00203070E078010014BF40F474
:104CB00000710021504601F0B8FC5046BDE8F64EA8
:104CC000FEF787BFB4F80300FEF7D9FF010041D01B
:104CD000B4F80D10621D02B0BDE8F04E01F0CBBF7C
:104CE000B4F80B000090B4F80930B4F80720B4F819
:104CF0000510B4F8030000F010FC2BE0A088FEF7CC
:104D0000BEFF010026D0A179BDE8FC4E00F0A2BF95
:104D1000E078E379B4F80520010014BF40F4007195
:104D20000021207902B0BDE8F04E01F023B9B4F8BB
:104D30000300FEF7A4FF02001EBFB4F80500B2F89E
:104D40004E10814206D0A2F84E001046BDE8F64E45
:104D500000F055BFBDE8F38E05EBC60020446D1C86
:104D600000794844704738B505462878032846D06E
:104D7000052831D0082815D00E2806D00F2808D0D5
:104D800030280AD03E2865D031BD2846BDE83240E3
:104D90002BE62846BDE8324008E600F060F8040043
:104DA0005CD00EE000F05BF8040057D0697994F80D
:104DB0003000002914BF40F0010000F0FE0084F82C
:104DC0003000A878010014BF40F400710021204693
:104DD000BDE8344001F09ABC00F041F804003DD039
:104DE0000020207440F6FF7020846879010014BF11
:104DF00040F400710021204601F002FC25E0102162
:104E0000681DFEF752FF040028D0A87890B9B5F8C5
:104E100003102046FEF7DAFEE87A28B194F8300055
:104E200040F0010084F830002046BDE83440002105
:104E300001F0FBBB00202074A878010014BF40F4EF
:104E400000710021204601F0F0FB2046BDE8324011
:104E5000FEF7BFBE2846BDE8324060E631BDB5F87A
:104E60000300FEF70CBF0146DFF85003FFF789BBD4
:104E7000DFF84003C168002906BF4069002801200F
:104E80007047DFF83013CA680020002A1CBF01F108
:104E90000C00FFF7ADBA704780B528B102F054F8A6
:104EA000BDE8024002F0E6B801BD10B502F067F8B7
:104EB000040009D0607A20441030FFF754FF2046E8
:104EC000BDE81040FFF779B9FFF7DBFF18B1BDE887
:104ED000104000F09DBD10BD80B5002141F20900D9
:104EE00002F034F800B99AE29CE280B510B10228D1
:104EF00018D001BD042142F2240002F027F820B9A5
:104F0000BDE80240012039E501BDFB21A0F80310F6
:104F10004FF6FF71A0F80510FFF7BEFFBDE8024095
:104F2000022020E002F02BF80028EDD0417A014465
:104F30000A7C0E2AE8D1897C9E4A01295160E3DB74
:104F4000FFF73BF9DCE710B1022801D07047C3E757
:104F500014E510B1022805D07047002203219648BD
:104F600000F0B0BBA1E7934A9549126851F82210AE
:104F700008470220F7E70020F5E770B50446914D99
:104F800003E00668FFF719F92E60286820B1C168B0
:104F9000A142F6D00546F8E784F82D0070BD10B5A3
:104FA0000446207C010018BF012802D140F2811084
:104FB00010BD032802D100F0A5F90CE0032140F256
:104FC000064001F0C3FF00B95FE200F0ACF9132125
:104FD0004171FFF761FF01202074002010BDF2B580
:104FE000018C40F6FF72914203D16846FFF7F5F954
:104FF000F1BD0099012208E08B68C86023F0060328
:1050000043EA42028A60002209680029F4D100992B
:105010006C48FFF7B6FA30E0FFF7A8FA0446B86824
:10502000FE68C0F3400520F00200B8600421384655
:10503000FFF714FA4CF6FF738168C66021F0020195
:1050400041EA45018160417A014431F8102FC2F3F1
:105050000D020A801A4083685B0803F0010383F0A5
:10506000010342EA03320A80C2680B88128C4C802A
:1050700062F30B030B8002F003F801F07DFF0700E1
:10508000CAD1F1BD38B50446062142F2050001F04F
:105090005DFF050001D1002032BD06222146E81C3B
:1050A000FEF76EFF2846FFF7F7FEBDE832407DE0D1
:1050B0002DE9F0410E4617469846434984B01CC975
:1050C0000546684619211CC042F2360001F03EFF39
:1050D000040008BF00202AD0E5703DF81800A08029
:1050E000A671300AE071677200202072380AA0723F
:1050F0000020E0720D9820730A9860730E98607516
:105100007F20A0750120E0750020A0760F98E07642
:105110000B98A0730C9921B1062204F10F00FEF741
:105120002FFF2046FFF7B8FE2848FFF71FFC04B00A
:10513000BDE8F08101F00AFFBDE80240ACE670B5C1
:1051400004460D46072142F2350001F0FFFE06003D
:1051500001D1002070BD00F034F93046FFF79CFE0D
:10516000BDE8704022E0F8B500F041F842F23700A7
:1051700001F0ECFE070001D10020F2BD00F03DF887
:1051800038460FE0A0F80550A0F80760A0F80970B5
:105190000699A0F80B100021A0F80D104FF6FF7132
:1051A000A0F80F10FFF778FEBDE8F2400748FFF7C0
:1051B000DDBB0000EC09002054060020F8090020A7
:1051C000201C0000FC090020141C00000E0A002016
:1051D000F8B500F00CF842F2380001F0B7FE070015
:1051E00001D10020F2BD00F008F83846DAE70D469C
:1051F0000446291D1646C9B2704703203871FC7059
:1052000000207871BD712A463146F81DFEF7B8BE00
:10521000F8B500F021F842F2390001F097FE50B1E4
:1052200001210171C570310AC1714471390A41729D
:1052300086710772B6E7F2BDF8B500F00DF842F2DC
:105240000B0001F083FE30B1C4708580C680077208
:1052500006994172A6E7F2BD04460D4616461F4662
:105260000721704738B504460D46022142F20C0072
:1052700001F06CFE30B1C4700571FFF70DFEBDE8A2
:10528000324093E732BD2DE9F843814609F110061B
:10529000032030700D4601201446B0770A9A099910
:1052A0009846484600F014FA192142F20D0001F028
:1052B0004DFE070008BF4FF4C17021D0C820A7F8E9
:1052C0000300A7F8050006220020F87109F111017A
:1052D000F079387207F10900FEF752FEB07B012821
:1052E00018BF0020F8733D827C82A7F814800898CC
:1052F000F882002038837C833846FFF7CDFD0020FC
:10530000BDE8F28380B5002142F20E0012E7F8B545
:1053100000F00FF942F2130001F018FE10B100F096
:1053200002F82FE7F2BD218CA0F8031070472DE999
:10533000F04100F067F898461C2142F2190001F094
:1053400005FE070008BF4FF4C17013D0208CA7F8EA
:10535000030008222946781DFEF712FEA7F80D600B
:105360001022414607F10F00FEF70AFE3846FFF70C
:1053700093FD0020BDE8F08170B50D0004460AD110
:10538000022142F21B0001F0E1FD060012D0208C48
:10539000A6F803000EE0122142F21A0001F0D6FD39
:1053A000060007D0208CA6F8030010222946701DA5
:1053B000FEF7E6FD01E000F004F83046BDE870407D
:1053C0006AE5F47006222946301DFEF7D9BD70B596
:1053D00000F018F8032142F2330001F0B7FD00B9E4
:1053E0002FE031E0F8B500F00DF81F46042142F23D
:1053F000340001F0ABFD00B940E0C47005714671A6
:1054000087713EE004460D461646704780B5002180
:1054100042F21F0001F09AFD00B900E002E04FF4F3
:10542000C17002BDFFF738FD002002BD70B5FFF767
:10543000E9FF032142F2310001F088FD00B900E0EC
:1054400002E04FF4C17070BDC47005714671FFF782
:1054500023FD002070BDF8B5FFF7D4FF1F460621DD
:1054600042F2320001F072FD00B907E0FFF75BFF86
:1054700045718671C7710699017202E04FF4C170DF
:10548000F2BDFFF709FD0020F2BD4FF4C17010BD61
:1054900010B50446022141F2054001F057FD00B964
:1054A000F3E7A0F80340FFF7F7FC002010BD38B584
:1054B00004460D4606214FF6054001F047FD00B9B0
:1054C00000E00CE04FF4C17032BD38B504460D4623
:1054D00006214FF6064001F039FD00B9F2E7A0F8C9
:1054E0000340C0F80550FFF7D7FC002032BDF8B5E7
:1054F0000D460446A91C1646C9B24FF6074001F0F6
:1055000025FD070000D1B9E7FC703D712A46314600
:10551000781DFEF735FD3846B3E7F8B500F009F819
:1055200042F2200001F012FD10B1A0F8034029E67C
:10553000F2BD04460D4616461F460E217047FEE793
:10554000B54908607047B5490A680AB90020704734
:10555000D2680021101A00D400D1012108467047FA
:1055600010B5AE4A12684FF0FF3109E0D3681469F4
:105570005268E3181B1A23F000438B4298BF194668
:10558000002AF3D1084610BD10B5040010D06069A0
:1055900030B1A168002903D400F057F90020606100
:1055A000207E0F2804DA2146FFF7C1F90F2020766C
:1055B00010BD9A49002008600023142220210A20EF
:1055C000FFF772B92DE9F84F944C2568804689465B
:1055D00092469B46002604E06F682846FFF7D4FFFA
:1055E0003D46BDB12868404502BFA86820F0004094
:1055F00048450CD15FEA0B0003D068695146D84793
:1056000028B96868002E14BF70602060E4E72E4659
:105610006D68E6E7BDE8F18F00230022D2E71CB5F4
:105620000A240194049C009400F001F816BD2DE9B1
:10563000F04106001CBF306800280F4690461D460A
:105640000AD1B8F1000F04D0002F5CBF404600F033
:10565000FCF84FF4C67033E0079C2046FFF756F97C
:1056600050B9B8F1000F04D0002F5CBF404600F0E5
:10567000ECF84FF4C17023E08760C0F81480066036
:1056800000220699654B01610476C561624909688B
:105690006918C1601C68254601E02A466D683DB165
:1056A000EE68761AB6F1004FF7D2EE688E42F4D06B
:1056B00012B94460186002E05168416050600020F7
:1056C000BDE8F08180B500230093FFF7A8FF02BD7D
:1056D00070B504460D4616460C2000F0A4F810B92B
:1056E0004FF4C17070BD4560866021680160206024
:1056F000002070BD2DE9F0410546002728680E46C0
:105700009046002801E0074620000ED0426801685C
:10571000B24204BF826842450C46F4D1002F0CBF50
:105720002960396000F091F8EEE7BDE8F08138B506
:1057300004463A492068096807E00A68A24203D192
:105740008A6802F000428A6049680029F5D120B1D8
:10575000056800F07AF82846F9E7206031BD2DE9A8
:10576000F04104000D4690460DD0276800E0374612
:105770004FB13E68B8687F6843462A462146B8471D
:105780000100F4D000E00020BDE8F0812DE9F041F7
:10579000214C234D214E206021E0286007461ED079
:1057A000B86840001FBF38680028D0F800C0BCF1BE
:1057B000000F0FD0BA6850000CD0DCF80080DCF885
:1057C00008007B693968DCF804C0E04710B95FEA7B
:1057D000080CEFD12868FFF7D7FE00202860276863
:1057E0003846FFF7B0FE28B130680028D5D04168B0
:1057F0003160D2E73846BDE8F041B1E6202070477D
:10580000074A12681AB1D3690360106901E00260A7
:105810000020086070470000A4050020A8050020B3
:10582000AC050020704738B5C01C8408A00002F009
:10583000DFFA050001D1002032BDA100FFF792F888
:10584000284632BDEFE74843EDE702F0DFBA704784
:1058500080B500220FF205116B48FFF739FF6B4945
:105860004020488001BD76B504460D461046FEF73F
:105870007DFE064601980421FEF7F0FD28B901A837
:10588000FEF7ABFD4FF4C17076BD0190417A08443C
:1058900010304580068020460199FFF7A0FB0020CC
:1058A00076BD2DE9F041804658480D4601784C1CE4
:1058B000164604701F46102204210020FEF702FC49
:1058C00010B94FF4C17016E0417A014401F11002A1
:1058D000052151800C211180122111715471082170
:1058E000D1801581568197810699D1810146404624
:1058F000FFF775FB0020BDE8F08170B500F00FF8F0
:1059000000B91EE000F013F813221DE070B500F09E
:1059100006F800B915E000F00AF8012214E0044688
:105920000D4616460A2204210020FEF7CBBB417A21
:105930000144103105224A804D7106220A800E81F1
:1059400070474FF4C17070BD0A710222CA800146CF
:105950002046FFF744FB002070BD000080B5062AFA
:1059600001BF2A4801891A8891420AD10021018188
:105970009A7802B10122018AC068FFF7BEFF0120B8
:1059800002BD002002BDF8B50D4604462879122854
:1059900002D013282CD02FE094F82E0002282BD010
:1059A000298940F67B408A1F82423EBF6A89931F45
:1059B000834213D28A4211D3AB89B3F5FA7F0DDA51
:1059C000E889A0F10A0640F67747BE4206D2009069
:1059D0002046FFF79CFC0D49088128B969792046CB
:1059E000BDE8F840012288E7CC6068790882F1BD03
:1059F00094F82E00012805D169792046BDE8F840C9
:105A0000002283E7F1BD000054060020140A0020A4
:105A100031B5417A084400F110052888C0F30B0025
:105A2000FEF72DF9040003D16846FEF7D6FC31BD20
:105A30000098C460288800F44051C0F30B00B1F511
:105A4000805F288004D10098806820F0020007E081
:105A500004F12400FEF7C1FC0098806840F00200C9
:105A60000099886000980099407A001D487204F1FE
:105A700024000099FEF785FD606A0146002201E0DE
:105A80000968521C0029FBD1D2B2022AA8BFFEF736
:105A900015FE606AFEF76AFD04282AD3606A417A1F
:105AA000014401F11005FEF761FD2988091D8142BD
:105AB0001FD1688804280DD017D3062805D014D22A
:105AC00029462046FFF75FFF0FE0616A204601F09C
:105AD000D4F807E0606A417A091D4172A06B616ADF
